{
  "contractName": "Supply",
  "abi": [
    {
      "anonymous": false,
      "inputs": [
        {
          "indexed": false,
          "internalType": "bool",
          "name": "loggedin",
          "type": "bool"
        }
      ],
      "name": "Loggedin",
      "type": "event"
    },
    {
      "anonymous": false,
      "inputs": [
        {
          "indexed": false,
          "internalType": "bool",
          "name": "_isloggedin",
          "type": "bool"
        }
      ],
      "name": "isLoggedin",
      "type": "event"
    },
    {
      "constant": true,
      "inputs": [
        {
          "internalType": "uint256",
          "name": "",
          "type": "uint256"
        }
      ],
      "name": "customer_list",
      "outputs": [
        {
          "internalType": "address",
          "name": "customer_owner",
          "type": "address"
        },
        {
          "internalType": "string",
          "name": "username",
          "type": "string"
        },
        {
          "internalType": "string",
          "name": "password",
          "type": "string"
        }
      ],
      "payable": false,
      "stateMutability": "view",
      "type": "function"
    },
    {
      "constant": true,
      "inputs": [
        {
          "internalType": "uint256",
          "name": "",
          "type": "uint256"
        }
      ],
      "name": "geo_list",
      "outputs": [
        {
          "internalType": "string",
          "name": "deviceid",
          "type": "string"
        },
        {
          "internalType": "string",
          "name": "latitude",
          "type": "string"
        },
        {
          "internalType": "string",
          "name": "longitude",
          "type": "string"
        },
        {
          "internalType": "string",
          "name": "date",
          "type": "string"
        }
      ],
      "payable": false,
      "stateMutability": "view",
      "type": "function"
    },
    {
      "constant": true,
      "inputs": [
        {
          "internalType": "uint256",
          "name": "",
          "type": "uint256"
        }
      ],
      "name": "manager_list",
      "outputs": [
        {
          "internalType": "string",
          "name": "username",
          "type": "string"
        },
        {
          "internalType": "string",
          "name": "password",
          "type": "string"
        },
        {
          "internalType": "address",
          "name": "owner",
          "type": "address"
        }
      ],
      "payable": false,
      "stateMutability": "view",
      "type": "function"
    },
    {
      "constant": true,
      "inputs": [
        {
          "internalType": "uint256",
          "name": "",
          "type": "uint256"
        }
      ],
      "name": "product_list",
      "outputs": [
        {
          "internalType": "uint256",
          "name": "deviceid",
          "type": "uint256"
        },
        {
          "internalType": "address",
          "name": "owner",
          "type": "address"
        },
        {
          "internalType": "string",
          "name": "product",
          "type": "string"
        },
        {
          "internalType": "uint256",
          "name": "quality",
          "type": "uint256"
        },
        {
          "internalType": "string",
          "name": "latitude",
          "type": "string"
        },
        {
          "internalType": "string",
          "name": "longitude",
          "type": "string"
        }
      ],
      "payable": false,
      "stateMutability": "view",
      "type": "function"
    },
    {
      "constant": true,
      "inputs": [],
      "name": "get",
      "outputs": [
        {
          "internalType": "string",
          "name": "",
          "type": "string"
        }
      ],
      "payable": false,
      "stateMutability": "view",
      "type": "function"
    },
    {
      "constant": false,
      "inputs": [
        {
          "internalType": "string",
          "name": "_username",
          "type": "string"
        },
        {
          "internalType": "string",
          "name": "_password",
          "type": "string"
        }
      ],
      "name": "log_in_manager",
      "outputs": [
        {
          "internalType": "bool",
          "name": "",
          "type": "bool"
        }
      ],
      "payable": true,
      "stateMutability": "payable",
      "type": "function"
    },
    {
      "constant": false,
      "inputs": [
        {
          "internalType": "string",
          "name": "_username",
          "type": "string"
        },
        {
          "internalType": "string",
          "name": "_password",
          "type": "string"
        }
      ],
      "name": "log_in_customer",
      "outputs": [
        {
          "internalType": "bool",
          "name": "",
          "type": "bool"
        }
      ],
      "payable": true,
      "stateMutability": "payable",
      "type": "function"
    },
    {
      "constant": false,
      "inputs": [
        {
          "internalType": "string",
          "name": "_username",
          "type": "string"
        },
        {
          "internalType": "string",
          "name": "_password",
          "type": "string"
        }
      ],
      "name": "create_manager",
      "outputs": [],
      "payable": false,
      "stateMutability": "nonpayable",
      "type": "function"
    },
    {
      "constant": false,
      "inputs": [
        {
          "internalType": "string",
          "name": "_username",
          "type": "string"
        },
        {
          "internalType": "string",
          "name": "_password",
          "type": "string"
        }
      ],
      "name": "create_customer",
      "outputs": [],
      "payable": false,
      "stateMutability": "nonpayable",
      "type": "function"
    },
    {
      "constant": false,
      "inputs": [
        {
          "internalType": "uint256",
          "name": "_deviceid",
          "type": "uint256"
        },
        {
          "internalType": "string",
          "name": "_product",
          "type": "string"
        },
        {
          "internalType": "uint256",
          "name": "_quality",
          "type": "uint256"
        },
        {
          "internalType": "string",
          "name": "_latitude",
          "type": "string"
        },
        {
          "internalType": "string",
          "name": "_longitude",
          "type": "string"
        }
      ],
      "name": "create_product",
      "outputs": [],
      "payable": false,
      "stateMutability": "nonpayable",
      "type": "function"
    },
    {
      "constant": false,
      "inputs": [
        {
          "internalType": "string",
          "name": "_deviceid",
          "type": "string"
        },
        {
          "internalType": "string",
          "name": "_latitude",
          "type": "string"
        },
        {
          "internalType": "string",
          "name": "_longitude",
          "type": "string"
        },
        {
          "internalType": "string",
          "name": "_date",
          "type": "string"
        }
      ],
      "name": "create_location",
      "outputs": [],
      "payable": false,
      "stateMutability": "nonpayable",
      "type": "function"
    },
    {
      "constant": true,
      "inputs": [
        {
          "internalType": "uint256",
          "name": "_id",
          "type": "uint256"
        }
      ],
      "name": "get_index_manager",
      "outputs": [
        {
          "internalType": "string",
          "name": "",
          "type": "string"
        }
      ],
      "payable": false,
      "stateMutability": "view",
      "type": "function"
    },
    {
      "constant": true,
      "inputs": [
        {
          "internalType": "string",
          "name": "_id",
          "type": "string"
        }
      ],
      "name": "get_new_locationid",
      "outputs": [
        {
          "components": [
            {
              "internalType": "string",
              "name": "deviceid",
              "type": "string"
            },
            {
              "internalType": "string",
              "name": "latitude",
              "type": "string"
            },
            {
              "internalType": "string",
              "name": "longitude",
              "type": "string"
            },
            {
              "internalType": "string",
              "name": "date",
              "type": "string"
            }
          ],
          "internalType": "struct Supply.Geolocation[]",
          "name": "",
          "type": "tuple[]"
        }
      ],
      "payable": false,
      "stateMutability": "view",
      "type": "function"
    },
    {
      "constant": true,
      "inputs": [],
      "name": "get_product_list",
      "outputs": [
        {
          "components": [
            {
              "internalType": "uint256",
              "name": "deviceid",
              "type": "uint256"
            },
            {
              "internalType": "address",
              "name": "owner",
              "type": "address"
            },
            {
              "internalType": "string",
              "name": "product",
              "type": "string"
            },
            {
              "internalType": "uint256",
              "name": "quality",
              "type": "uint256"
            },
            {
              "internalType": "string",
              "name": "latitude",
              "type": "string"
            },
            {
              "internalType": "string",
              "name": "longitude",
              "type": "string"
            }
          ],
          "internalType": "struct Supply.Product[]",
          "name": "",
          "type": "tuple[]"
        }
      ],
      "payable": false,
      "stateMutability": "view",
      "type": "function"
    },
    {
      "constant": true,
      "inputs": [],
      "name": "get_manager_list",
      "outputs": [
        {
          "components": [
            {
              "internalType": "string",
              "name": "username",
              "type": "string"
            },
            {
              "internalType": "string",
              "name": "password",
              "type": "string"
            },
            {
              "internalType": "address",
              "name": "owner",
              "type": "address"
            }
          ],
          "internalType": "struct Supply.Manager[]",
          "name": "",
          "type": "tuple[]"
        }
      ],
      "payable": false,
      "stateMutability": "view",
      "type": "function"
    },
    {
      "constant": true,
      "inputs": [
        {
          "internalType": "uint256",
          "name": "_id",
          "type": "uint256"
        }
      ],
      "name": "get_devid",
      "outputs": [
        {
          "internalType": "uint256",
          "name": "",
          "type": "uint256"
        }
      ],
      "payable": false,
      "stateMutability": "view",
      "type": "function"
    },
    {
      "constant": true,
      "inputs": [],
      "name": "get_geolocation",
      "outputs": [
        {
          "components": [
            {
              "internalType": "string",
              "name": "deviceid",
              "type": "string"
            },
            {
              "internalType": "string",
              "name": "latitude",
              "type": "string"
            },
            {
              "internalType": "string",
              "name": "longitude",
              "type": "string"
            },
            {
              "internalType": "string",
              "name": "date",
              "type": "string"
            }
          ],
          "internalType": "struct Supply.Geolocation[]",
          "name": "",
          "type": "tuple[]"
        }
      ],
      "payable": false,
      "stateMutability": "view",
      "type": "function"
    },
    {
      "constant": true,
      "inputs": [
        {
          "internalType": "uint256",
          "name": "_id",
          "type": "uint256"
        }
      ],
      "name": "get_index_product",
      "outputs": [
        {
          "internalType": "uint256",
          "name": "",
          "type": "uint256"
        },
        {
          "internalType": "string",
          "name": "",
          "type": "string"
        },
        {
          "internalType": "uint256",
          "name": "",
          "type": "uint256"
        },
        {
          "internalType": "string",
          "name": "",
          "type": "string"
        },
        {
          "internalType": "string",
          "name": "",
          "type": "string"
        }
      ],
      "payable": false,
      "stateMutability": "view",
      "type": "function"
    },
    {
      "constant": true,
      "inputs": [
        {
          "internalType": "string",
          "name": "_id",
          "type": "string"
        }
      ],
      "name": "get_index_location",
      "outputs": [
        {
          "internalType": "string",
          "name": "",
          "type": "string"
        },
        {
          "internalType": "string",
          "name": "",
          "type": "string"
        },
        {
          "internalType": "string",
          "name": "",
          "type": "string"
        },
        {
          "internalType": "string",
          "name": "",
          "type": "string"
        }
      ],
      "payable": false,
      "stateMutability": "view",
      "type": "function"
    },
    {
      "constant": false,
      "inputs": [
        {
          "internalType": "string",
          "name": "_id",
          "type": "string"
        },
        {
          "internalType": "string",
          "name": "_latitude",
          "type": "string"
        },
        {
          "internalType": "string",
          "name": "_longitude",
          "type": "string"
        },
        {
          "internalType": "string",
          "name": "_date",
          "type": "string"
        }
      ],
      "name": "set_curr_location",
      "outputs": [
        {
          "internalType": "string",
          "name": "",
          "type": "string"
        },
        {
          "internalType": "string",
          "name": "",
          "type": "string"
        },
        {
          "internalType": "string",
          "name": "",
          "type": "string"
        },
        {
          "internalType": "string",
          "name": "",
          "type": "string"
        }
      ],
      "payable": true,
      "stateMutability": "payable",
      "type": "function"
    }
  ],
  "bytecode": "0x608060405233600260006101000a81548173ffffffffffffffffffffffffffffffffffffffff021916908373ffffffffffffffffffffffffffffffffffffffff16021790555033600360006101000a81548173ffffffffffffffffffffffffffffffffffffffff021916908373ffffffffffffffffffffffffffffffffffffffff1602179055506040518060400160405280600b81526020017f48656c6c6f20576f726c6400000000000000000000000000000000000000000081525060079080519060200190620000d3929190620000e8565b50348015620000e157600080fd5b5062000197565b828054600181600116156101000203166002900490600052602060002090601f016020900481019282601f106200012b57805160ff19168380011785556200015c565b828001600101855582156200015c579182015b828111156200015b5782518255916020019190600101906200013e565b5b5090506200016b91906200016f565b5090565b6200019491905b808211156200019057600081600090555060010162000176565b5090565b90565b61363080620001a76000396000f3fe60806040526004361061011f5760003560e01c80637c513c12116100a0578063c3ef631e11610064578063c3ef631e1461042c578063d0236d4014610455578063e249737614610495578063eb5ba90f146104be578063faada70f146105005761011f565b80637c513c121461031957806397eaa0b91461035957806399dbd39514610382578063a3656dc6146103bf578063b5bdb09c146103fc5761011f565b80635074147c116100e75780635074147c1461022b5780635bd37c9e146102685780636b90357f146102935780636d4ce63c146102be57806378934035146102e95761011f565b806302f6e1e11461012457806326be0ec11461016357806329733f46146101965780632dfb90f5146101bf57806331c331e314610200575b600080fd5b34801561013057600080fd5b5061014b60048036036101469190810190612b20565b61053f565b60405161015a939291906130ec565b60405180910390f35b61017d60048036036101789190810190612a5d565b6106c6565b60405161018d94939291906131d4565b60405180910390f35b3480156101a257600080fd5b506101bd60048036036101b89190810190612b49565b6107df565b005b3480156101cb57600080fd5b506101e660048036036101e19190810190612b20565b61092d565b6040516101f795949392919061336c565b60405180910390f35b34801561020c57600080fd5b50610215610c11565b6040516102229190613153565b60405180910390f35b34801561023757600080fd5b50610252600480360361024d9190810190612b20565b610e0a565b60405161025f91906131b2565b60405180910390f35b34801561027457600080fd5b5061027d610eca565b60405161028a9190613175565b60405180910390f35b34801561029f57600080fd5b506102a8611179565b6040516102b59190613131565b60405180910390f35b3480156102ca57600080fd5b506102d3611460565b6040516102e091906131b2565b60405180910390f35b61030360048036036102fe91908101906129f1565b611502565b6040516103109190613197565b60405180910390f35b34801561032557600080fd5b50610340600480360361033b9190810190612b20565b611624565b604051610350949392919061327a565b60405180910390f35b34801561036557600080fd5b50610380600480360361037b91908101906129f1565b6118c1565b005b34801561038e57600080fd5b506103a960048036036103a491908101906129b0565b6119c9565b6040516103b69190613131565b60405180910390f35b3480156103cb57600080fd5b506103e660048036036103e19190810190612b20565b611cce565b6040516103f391906132db565b60405180910390f35b610416600480360361041191908101906129f1565b611cf6565b6040516104239190613197565b60405180910390f35b34801561043857600080fd5b50610453600480360361044e9190810190612a5d565b611e18565b005b34801561046157600080fd5b5061047c600480360361047791908101906129b0565b611fd0565b60405161048c94939291906131d4565b60405180910390f35b3480156104a157600080fd5b506104bc60048036036104b791908101906129f1565b61233a565b005b3480156104ca57600080fd5b506104e560048036036104e09190810190612b20565b612442565b6040516104f7969594939291906132f6565b60405180910390f35b34801561050c57600080fd5b5061052760048036036105229190810190612b20565b612673565b60405161053693929190613235565b60405180910390f35b6009818154811061054c57fe5b90600052602060002090600302016000915090508060000160009054906101000a900473ffffffffffffffffffffffffffffffffffffffff1690806001018054600181600116156101000203166002900480601f01602080910402602001604051908101604052809291908181526020018280546001816001161561010002031660029004801561061e5780601f106105f35761010080835404028352916020019161061e565b820191906000526020600020905b81548152906001019060200180831161060157829003601f168201915b505050505090806002018054600181600116156101000203166002900480601f0160208091040260200160405190810160405280929190818152602001828054600181600116156101000203166002900480156106bc5780601f10610691576101008083540402835291602001916106bc565b820191906000526020600020905b81548152906001019060200180831161069f57829003601f168201915b5050505050905083565b60608060608060008090505b600e805490508110156107c7578880519060200120600e82815481106106f457fe5b906000526020600020906004020160000160405161071291906130be565b604051809103902014156107ba5786600e828154811061072e57fe5b906000526020600020906004020160020190805190602001906107529291906127fa565b5087600e828154811061076157fe5b906000526020600020906004020160010190805190602001906107859291906127fa565b5085600e828154811061079457fe5b906000526020600020906004020160030190805190602001906107b89291906127fa565b505b80806001019150506106d2565b50878787879350935093509350945094509450949050565b600c6040518060c00160405280878152602001600260009054906101000a900473ffffffffffffffffffffffffffffffffffffffff1673ffffffffffffffffffffffffffffffffffffffff16815260200186815260200185815260200184815260200183815250908060018154018082558091505090600182039060005260206000209060060201600090919290919091506000820151816000015560208201518160010160006101000a81548173ffffffffffffffffffffffffffffffffffffffff021916908373ffffffffffffffffffffffffffffffffffffffff16021790555060408201518160020190805190602001906108de92919061287a565b5060608201518160030155608082015181600401908051906020019061090592919061287a565b5060a082015181600501908051906020019061092292919061287a565b505050505050505050565b60006060600060608060006060600060608060008090505b600c80549050811015610bf3578b600c828154811061096057fe5b9060005260206000209060060201600001541415610be657600c818154811061098557fe5b9060005260206000209060060201600001549550600c81815481106109a657fe5b90600052602060002090600602016002018054600181600116156101000203166002900480601f016020809104026020016040519081016040528092919081815260200182805460018160011615610100020316600290048015610a4b5780601f10610a2057610100808354040283529160200191610a4b565b820191906000526020600020905b815481529060010190602001808311610a2e57829003601f168201915b50505050509450600c8181548110610a5f57fe5b9060005260206000209060060201600301549350600c8181548110610a8057fe5b90600052602060002090600602016004018054600181600116156101000203166002900480601f016020809104026020016040519081016040528092919081815260200182805460018160011615610100020316600290048015610b255780601f10610afa57610100808354040283529160200191610b25565b820191906000526020600020905b815481529060010190602001808311610b0857829003601f168201915b50505050509250600c8181548110610b3957fe5b90600052602060002090600602016005018054600181600116156101000203166002900480601f016020809104026020016040519081016040528092919081815260200182805460018160011615610100020316600290048015610bde5780601f10610bb357610100808354040283529160200191610bde565b820191906000526020600020905b815481529060010190602001808311610bc157829003601f168201915b505050505091505b8080600101915050610945565b50848484848499509950995099509950505050505091939590929450565b6060600d805480602002602001604051908101604052809291908181526020016000905b82821015610e015783829060005260206000209060030201604051806060016040529081600082018054600181600116156101000203166002900480601f016020809104026020016040519081016040528092919081815260200182805460018160011615610100020316600290048015610cf15780601f10610cc657610100808354040283529160200191610cf1565b820191906000526020600020905b815481529060010190602001808311610cd457829003601f168201915b50505050508152602001600182018054600181600116156101000203166002900480601f016020809104026020016040519081016040528092919081815260200182805460018160011615610100020316600290048015610d935780601f10610d6857610100808354040283529160200191610d93565b820191906000526020600020905b815481529060010190602001808311610d7657829003601f168201915b505050505081526020016002820160009054906101000a900473ffffffffffffffffffffffffffffffffffffffff1673ffffffffffffffffffffffffffffffffffffffff1673ffffffffffffffffffffffffffffffffffffffff168152505081526020019060010190610c35565b50505050905090565b6060600d8281548110610e1957fe5b90600052602060002090600302016000018054600181600116156101000203166002900480601f016020809104026020016040519081016040528092919081815260200182805460018160011615610100020316600290048015610ebe5780601f10610e9357610100808354040283529160200191610ebe565b820191906000526020600020905b815481529060010190602001808311610ea157829003601f168201915b50505050509050919050565b6060600c805480602002602001604051908101604052809291908181526020016000905b8282101561117057838290600052602060002090600602016040518060c0016040529081600082015481526020016001820160009054906101000a900473ffffffffffffffffffffffffffffffffffffffff1673ffffffffffffffffffffffffffffffffffffffff1673ffffffffffffffffffffffffffffffffffffffff168152602001600282018054600181600116156101000203166002900480601f01602080910402602001604051908101604052809291908181526020018280546001816001161561010002031660029004801561100a5780601f10610fdf5761010080835404028352916020019161100a565b820191906000526020600020905b815481529060010190602001808311610fed57829003601f168201915b5050505050815260200160038201548152602001600482018054600181600116156101000203166002900480601f0160208091040260200160405190810160405280929190818152602001828054600181600116156101000203166002900480156110b65780601f1061108b576101008083540402835291602001916110b6565b820191906000526020600020905b81548152906001019060200180831161109957829003601f168201915b50505050508152602001600582018054600181600116156101000203166002900480601f0160208091040260200160405190810160405280929190818152602001828054600181600116156101000203166002900480156111585780601f1061112d57610100808354040283529160200191611158565b820191906000526020600020905b81548152906001019060200180831161113b57829003601f168201915b50505050508152505081526020019060010190610eee565b50505050905090565b6060600e805480602002602001604051908101604052809291908181526020016000905b828210156114575783829060005260206000209060040201604051806080016040529081600082018054600181600116156101000203166002900480601f0160208091040260200160405190810160405280929190818152602001828054600181600116156101000203166002900480156112595780601f1061122e57610100808354040283529160200191611259565b820191906000526020600020905b81548152906001019060200180831161123c57829003601f168201915b50505050508152602001600182018054600181600116156101000203166002900480601f0160208091040260200160405190810160405280929190818152602001828054600181600116156101000203166002900480156112fb5780601f106112d0576101008083540402835291602001916112fb565b820191906000526020600020905b8154815290600101906020018083116112de57829003601f168201915b50505050508152602001600282018054600181600116156101000203166002900480601f01602080910402602001604051908101604052809291908181526020018280546001816001161561010002031660029004801561139d5780601f106113725761010080835404028352916020019161139d565b820191906000526020600020905b81548152906001019060200180831161138057829003601f168201915b50505050508152602001600382018054600181600116156101000203166002900480601f01602080910402602001604051908101604052809291908181526020018280546001816001161561010002031660029004801561143f5780601f106114145761010080835404028352916020019161143f565b820191906000526020600020905b81548152906001019060200180831161142257829003601f168201915b5050505050815250508152602001906001019061119d565b50505050905090565b606060078054600181600116156101000203166002900480601f0160208091040260200160405190810160405280929190818152602001828054600181600116156101000203166002900480156114f85780601f106114cd576101008083540402835291602001916114f8565b820191906000526020600020905b8154815290600101906020018083116114db57829003601f168201915b5050505050905090565b600080600090505b6009805490508110156115c55783805190602001206009828154811061152c57fe5b906000526020600020906003020160010160405161154a91906130be565b6040518091039020148015611597575082805190602001206009828154811061156f57fe5b906000526020600020906003020160020160405161158d91906130be565b6040518091039020145b156115b8576001600660016101000a81548160ff0219169083151502179055505b808060010191505061150a565b507f351e11033a2b1bbdbb4c3a8d026f1cac474ee0959f6802a8c9e8170bef7fce4a600660019054906101000a900460ff166040516116049190613197565b60405180910390a1600660019054906101000a900460ff16905092915050565b600e818154811061163157fe5b9060005260206000209060040201600091509050806000018054600181600116156101000203166002900480601f0160208091040260200160405190810160405280929190818152602001828054600181600116156101000203166002900480156116dd5780601f106116b2576101008083540402835291602001916116dd565b820191906000526020600020905b8154815290600101906020018083116116c057829003601f168201915b505050505090806001018054600181600116156101000203166002900480601f01602080910402602001604051908101604052809291908181526020018280546001816001161561010002031660029004801561177b5780601f106117505761010080835404028352916020019161177b565b820191906000526020600020905b81548152906001019060200180831161175e57829003601f168201915b505050505090806002018054600181600116156101000203166002900480601f0160208091040260200160405190810160405280929190818152602001828054600181600116156101000203166002900480156118195780601f106117ee57610100808354040283529160200191611819565b820191906000526020600020905b8154815290600101906020018083116117fc57829003601f168201915b505050505090806003018054600181600116156101000203166002900480601f0160208091040260200160405190810160405280929190818152602001828054600181600116156101000203166002900480156118b75780601f1061188c576101008083540402835291602001916118b7565b820191906000526020600020905b81548152906001019060200180831161189a57829003601f168201915b5050505050905084565b60096040518060600160405280600260009054906101000a900473ffffffffffffffffffffffffffffffffffffffff1673ffffffffffffffffffffffffffffffffffffffff168152602001848152602001838152509080600181540180825580915050906001820390600052602060002090600302016000909192909190915060008201518160000160006101000a81548173ffffffffffffffffffffffffffffffffffffffff021916908373ffffffffffffffffffffffffffffffffffffffff16021790555060208201518160010190805190602001906119a492919061287a565b5060408201518160020190805190602001906119c192919061287a565b505050505050565b60606005826040516119db91906130d5565b9081526020016040518091039020805480602002602001604051908101604052809291908181526020016000905b82821015611cc35783829060005260206000209060040201604051806080016040529081600082018054600181600116156101000203166002900480601f016020809104026020016040519081016040528092919081815260200182805460018160011615610100020316600290048015611ac55780601f10611a9a57610100808354040283529160200191611ac5565b820191906000526020600020905b815481529060010190602001808311611aa857829003601f168201915b50505050508152602001600182018054600181600116156101000203166002900480601f016020809104026020016040519081016040528092919081815260200182805460018160011615610100020316600290048015611b675780601f10611b3c57610100808354040283529160200191611b67565b820191906000526020600020905b815481529060010190602001808311611b4a57829003601f168201915b50505050508152602001600282018054600181600116156101000203166002900480601f016020809104026020016040519081016040528092919081815260200182805460018160011615610100020316600290048015611c095780601f10611bde57610100808354040283529160200191611c09565b820191906000526020600020905b815481529060010190602001808311611bec57829003601f168201915b50505050508152602001600382018054600181600116156101000203166002900480601f016020809104026020016040519081016040528092919081815260200182805460018160011615610100020316600290048015611cab5780601f10611c8057610100808354040283529160200191611cab565b820191906000526020600020905b815481529060010190602001808311611c8e57829003601f168201915b50505050508152505081526020019060010190611a09565b505050509050919050565b6000600c8281548110611cdd57fe5b9060005260206000209060060201600001549050919050565b600080600090505b600d80549050811015611db9578380519060200120600d8281548110611d2057fe5b9060005260206000209060030201600001604051611d3e91906130be565b6040518091039020148015611d8b57508280519060200120600d8281548110611d6357fe5b9060005260206000209060030201600101604051611d8191906130be565b6040518091039020145b15611dac576001600660006101000a81548160ff0219169083151502179055505b8080600101915050611cfe565b507fe5575030a45bf990234c8e9f8bd458c27fac9d93342917731b293a14e49a5121600660009054906101000a900460ff16604051611df89190613197565b60405180910390a1600660009054906101000a900460ff16905092915050565b611e206128fa565b6040518060800160405280868152602001858152602001848152602001838152509050600585604051611e5391906130d5565b908152602001604051809103902081908060018154018082558091505090600182039060005260206000209060040201600090919290919091506000820151816000019080519060200190611ea992919061287a565b506020820151816001019080519060200190611ec692919061287a565b506040820151816002019080519060200190611ee392919061287a565b506060820151816003019080519060200190611f0092919061287a565b50505050600e604051806080016040528087815260200186815260200185815260200184815250908060018154018082558091505090600182039060005260206000209060040201600090919290919091506000820151816000019080519060200190611f6e92919061287a565b506020820151816001019080519060200190611f8b92919061287a565b506040820151816002019080519060200190611fa892919061287a565b506060820151816003019080519060200190611fc592919061287a565b505050505050505050565b60608060608060608060608060008090505b600e80549050811015612322578980519060200120600e828154811061200457fe5b906000526020600020906004020160000160405161202291906130be565b6040518091039020141561231557600e818154811061203d57fe5b90600052602060002090600402016000018054600181600116156101000203166002900480601f0160208091040260200160405190810160405280929190818152602001828054600181600116156101000203166002900480156120e25780601f106120b7576101008083540402835291602001916120e2565b820191906000526020600020905b8154815290600101906020018083116120c557829003601f168201915b50505050509450600e81815481106120f657fe5b90600052602060002090600402016001018054600181600116156101000203166002900480601f01602080910402602001604051908101604052809291908181526020018280546001816001161561010002031660029004801561219b5780601f106121705761010080835404028352916020019161219b565b820191906000526020600020905b81548152906001019060200180831161217e57829003601f168201915b50505050509350600e81815481106121af57fe5b90600052602060002090600402016002018054600181600116156101000203166002900480601f0160208091040260200160405190810160405280929190818152602001828054600181600116156101000203166002900480156122545780601f1061222957610100808354040283529160200191612254565b820191906000526020600020905b81548152906001019060200180831161223757829003601f168201915b50505050509250600e818154811061226857fe5b90600052602060002090600402016003018054600181600116156101000203166002900480601f01602080910402602001604051908101604052809291908181526020018280546001816001161561010002031660029004801561230d5780601f106122e25761010080835404028352916020019161230d565b820191906000526020600020905b8154815290600101906020018083116122f057829003601f168201915b505050505091505b8080600101915050611fe2565b50838383839750975097509750505050509193509193565b600d6040518060600160405280848152602001838152602001600260009054906101000a900473ffffffffffffffffffffffffffffffffffffffff1673ffffffffffffffffffffffffffffffffffffffff168152509080600181540180825580915050906001820390600052602060002090600302016000909192909190915060008201518160000190805190602001906123d692919061287a565b5060208201518160010190805190602001906123f392919061287a565b5060408201518160020160006101000a81548173ffffffffffffffffffffffffffffffffffffffff021916908373ffffffffffffffffffffffffffffffffffffffff1602179055505050505050565b600c818154811061244f57fe5b90600052602060002090600602016000915090508060000154908060010160009054906101000a900473ffffffffffffffffffffffffffffffffffffffff1690806002018054600181600116156101000203166002900480601f0160208091040260200160405190810160405280929190818152602001828054600181600116156101000203166002900480156125275780601f106124fc57610100808354040283529160200191612527565b820191906000526020600020905b81548152906001019060200180831161250a57829003601f168201915b505050505090806003015490806004018054600181600116156101000203166002900480601f0160208091040260200160405190810160405280929190818152602001828054600181600116156101000203166002900480156125cb5780601f106125a0576101008083540402835291602001916125cb565b820191906000526020600020905b8154815290600101906020018083116125ae57829003601f168201915b505050505090806005018054600181600116156101000203166002900480601f0160208091040260200160405190810160405280929190818152602001828054600181600116156101000203166002900480156126695780601f1061263e57610100808354040283529160200191612669565b820191906000526020600020905b81548152906001019060200180831161264c57829003601f168201915b5050505050905086565b600d818154811061268057fe5b9060005260206000209060030201600091509050806000018054600181600116156101000203166002900480601f01602080910402602001604051908101604052809291908181526020018280546001816001161561010002031660029004801561272c5780601f106127015761010080835404028352916020019161272c565b820191906000526020600020905b81548152906001019060200180831161270f57829003601f168201915b505050505090806001018054600181600116156101000203166002900480601f0160208091040260200160405190810160405280929190818152602001828054600181600116156101000203166002900480156127ca5780601f1061279f576101008083540402835291602001916127ca565b820191906000526020600020905b8154815290600101906020018083116127ad57829003601f168201915b5050505050908060020160009054906101000a900473ffffffffffffffffffffffffffffffffffffffff16905083565b828054600181600116156101000203166002900490600052602060002090601f016020900481019282601f1061283b57805160ff1916838001178555612869565b82800160010185558215612869579182015b8281111561286857825182559160200191906001019061284d565b5b5090506128769190612922565b5090565b828054600181600116156101000203166002900490600052602060002090601f016020900481019282601f106128bb57805160ff19168380011785556128e9565b828001600101855582156128e9579182015b828111156128e85782518255916020019190600101906128cd565b5b5090506128f69190612922565b5090565b6040518060800160405280606081526020016060815260200160608152602001606081525090565b61294491905b80821115612940576000816000905550600101612928565b5090565b90565b600082601f83011261295857600080fd5b813561296b61296682613401565b6133d4565b9150808252602083016020830185838301111561298757600080fd5b612992838284613583565b50505092915050565b6000813590506129aa816135d6565b92915050565b6000602082840312156129c257600080fd5b600082013567ffffffffffffffff8111156129dc57600080fd5b6129e884828501612947565b91505092915050565b60008060408385031215612a0457600080fd5b600083013567ffffffffffffffff811115612a1e57600080fd5b612a2a85828601612947565b925050602083013567ffffffffffffffff811115612a4757600080fd5b612a5385828601612947565b9150509250929050565b60008060008060808587031215612a7357600080fd5b600085013567ffffffffffffffff811115612a8d57600080fd5b612a9987828801612947565b945050602085013567ffffffffffffffff811115612ab657600080fd5b612ac287828801612947565b935050604085013567ffffffffffffffff811115612adf57600080fd5b612aeb87828801612947565b925050606085013567ffffffffffffffff811115612b0857600080fd5b612b1487828801612947565b91505092959194509250565b600060208284031215612b3257600080fd5b6000612b408482850161299b565b91505092915050565b600080600080600060a08688031215612b6157600080fd5b6000612b6f8882890161299b565b955050602086013567ffffffffffffffff811115612b8c57600080fd5b612b9888828901612947565b9450506040612ba98882890161299b565b935050606086013567ffffffffffffffff811115612bc657600080fd5b612bd288828901612947565b925050608086013567ffffffffffffffff811115612bef57600080fd5b612bfb88828901612947565b9150509295509295909350565b6000612c148383612f3a565b905092915050565b6000612c288383612fb2565b905092915050565b6000612c3c8383613009565b905092915050565b612c4d8161353b565b82525050565b612c5c8161353b565b82525050565b6000612c6d82613472565b612c7781856134d0565b935083602082028501612c898561342d565b8060005b85811015612cc55784840389528151612ca68582612c08565b9450612cb1836134a9565b925060208a01995050600181019050612c8d565b50829750879550505050505092915050565b6000612ce28261347d565b612cec81856134e1565b935083602082028501612cfe8561343d565b8060005b85811015612d3a5784840389528151612d1b8582612c1c565b9450612d26836134b6565b925060208a01995050600181019050612d02565b50829750879550505050505092915050565b6000612d5782613488565b612d6181856134f2565b935083602082028501612d738561344d565b8060005b85811015612daf5784840389528151612d908582612c30565b9450612d9b836134c3565b925060208a01995050600181019050612d77565b50829750879550505050505092915050565b612dca8161354d565b82525050565b600081546001811660008114612ded5760018114612e1257612e56565b607f6002830416612dfe8187613503565b955060ff1983168652808601935050612e56565b60028204612e208187613503565b9550612e2b8561345d565b60005b82811015612e4d57815481890152600182019150602081019050612e2e565b82880195505050505b505092915050565b6000612e698261349e565b612e73818561351f565b9350612e83818560208601613592565b612e8c816135c5565b840191505092915050565b6000612ea28261349e565b612eac8185613530565b9350612ebc818560208601613592565b80840191505092915050565b6000612ed382613493565b612edd818561350e565b9350612eed818560208601613592565b612ef6816135c5565b840191505092915050565b6000612f0c82613493565b612f16818561351f565b9350612f26818560208601613592565b612f2f816135c5565b840191505092915050565b60006080830160008301518482036000860152612f578282612ec8565b91505060208301518482036020860152612f718282612ec8565b91505060408301518482036040860152612f8b8282612ec8565b91505060608301518482036060860152612fa58282612ec8565b9150508091505092915050565b60006060830160008301518482036000860152612fcf8282612ec8565b91505060208301518482036020860152612fe98282612ec8565b9150506040830151612ffe6040860182612c44565b508091505092915050565b600060c08301600083015161302160008601826130a0565b5060208301516130346020860182612c44565b506040830151848203604086015261304c8282612ec8565b915050606083015161306160608601826130a0565b50608083015184820360808601526130798282612ec8565b91505060a083015184820360a08601526130938282612ec8565b9150508091505092915050565b6130a981613579565b82525050565b6130b881613579565b82525050565b60006130ca8284612dd0565b915081905092915050565b60006130e18284612e97565b915081905092915050565b60006060820190506131016000830186612c53565b81810360208301526131138185612f01565b905081810360408301526131278184612f01565b9050949350505050565b6000602082019050818103600083015261314b8184612c62565b905092915050565b6000602082019050818103600083015261316d8184612cd7565b905092915050565b6000602082019050818103600083015261318f8184612d4c565b905092915050565b60006020820190506131ac6000830184612dc1565b92915050565b600060208201905081810360008301526131cc8184612e5e565b905092915050565b600060808201905081810360008301526131ee8187612e5e565b905081810360208301526132028186612e5e565b905081810360408301526132168185612e5e565b9050818103606083015261322a8184612e5e565b905095945050505050565b6000606082019050818103600083015261324f8186612f01565b905081810360208301526132638185612f01565b90506132726040830184612c53565b949350505050565b600060808201905081810360008301526132948187612f01565b905081810360208301526132a88186612f01565b905081810360408301526132bc8185612f01565b905081810360608301526132d08184612f01565b905095945050505050565b60006020820190506132f060008301846130af565b92915050565b600060c08201905061330b60008301896130af565b6133186020830188612c53565b818103604083015261332a8187612f01565b905061333960608301866130af565b818103608083015261334b8185612f01565b905081810360a083015261335f8184612f01565b9050979650505050505050565b600060a08201905061338160008301886130af565b81810360208301526133938187612e5e565b90506133a260408301866130af565b81810360608301526133b48185612e5e565b905081810360808301526133c88184612e5e565b90509695505050505050565b6000604051905081810181811067ffffffffffffffff821117156133f757600080fd5b8060405250919050565b600067ffffffffffffffff82111561341857600080fd5b601f19601f8301169050602081019050919050565b6000819050602082019050919050565b6000819050602082019050919050565b6000819050602082019050919050565b60008190508160005260206000209050919050565b600081519050919050565b600081519050919050565b600081519050919050565b600081519050919050565b600081519050919050565b6000602082019050919050565b6000602082019050919050565b6000602082019050919050565b600082825260208201905092915050565b600082825260208201905092915050565b600082825260208201905092915050565b600081905092915050565b600082825260208201905092915050565b600082825260208201905092915050565b600081905092915050565b600061354682613559565b9050919050565b60008115159050919050565b600073ffffffffffffffffffffffffffffffffffffffff82169050919050565b6000819050919050565b82818337600083830152505050565b60005b838110156135b0578082015181840152602081019050613595565b838111156135bf576000848401525b50505050565b6000601f19601f8301169050919050565b6135df81613579565b81146135ea57600080fd5b5056fea365627a7a7231582059ca4236f28370064f11c6d3a78bc02a9c1a04afb3f674dfa4bc5e3e815490896c6578706572696d656e74616cf564736f6c63430005100040",
  "source": "pragma solidity >=0.4.22 <0.9.0;\r\npragma experimental ABIEncoderV2;\r\n\r\ncontract Supply{\r\nmapping(uint => Manager) Manager_map;\r\nmapping(uint => Product) Product_map;\r\naddress owner = msg.sender;\r\naddress customer = msg.sender;\r\nmapping(uint => Customer) Customer_map;\r\n\r\nmapping (string => Geolocation[]) Geo_map;\r\n\r\n\r\nbool manager_loggedin;\r\nbool customer_loggedin;\r\n\r\nstring message = \"Hello World\";\r\n\r\nstruct Manager{\r\n    string username;\r\n    string password;\r\n    address owner;\r\n    \r\n}\r\nstruct Product{\r\n    uint deviceid;\r\n    address owner;\r\n    string product;\r\n    uint quality;\r\n    string latitude;\r\n    string longitude;\r\n}\r\n    \r\nstruct Customer{\r\n        address customer_owner;\r\n        string username;\r\n        string password;\r\n    }\r\n    \r\nstruct Geolocation{\r\n    string deviceid;\r\n    string latitude;\r\n    string longitude;\r\n    string date;\r\n}\r\n    \r\n    event isLoggedin(bool _isloggedin);\r\n    uint customerindex;\r\n    Customer [] public customer_list;\r\n\r\nevent Loggedin(bool loggedin); \r\n\r\nuint managerindex;\r\n\r\nuint geoindex;\r\n\r\nProduct [] public product_list;\r\nManager [] public manager_list;\r\n\r\n\r\nGeolocation [] public geo_list;\r\n\r\nmodifier is_manager_loggedin{\r\n    require(manager_loggedin = true, \"Manager - Password and username is not correct..\");\r\n    _;\r\n    }\r\n    \r\nmodifier is_customer_loggedin{\r\n    require(customer_loggedin = true, \"Customer - Password and username is not correct..\");\r\n    _;\r\n    }\r\n\r\n\r\nfunction get() public view returns(string memory) {\r\n        return message;\r\n}\r\n\r\n\r\nfunction log_in_manager(string memory _username, string memory _password) public payable returns(bool){\r\n    for(uint i = 0; i < manager_list.length; i++){\r\n        if(keccak256(bytes(manager_list[i].username)) == keccak256(bytes(_username)) && \r\n        keccak256(bytes(manager_list[i].password)) == keccak256(bytes(_password))\r\n        ){\r\n            manager_loggedin = true;\r\n            \r\n        }\r\n    }\r\n    emit Loggedin(manager_loggedin);\r\n    return manager_loggedin;\r\n}\r\n\r\nfunction log_in_customer(string memory _username, string memory _password) public payable returns(bool){\r\n    for(uint i = 0; i < customer_list.length; i++){\r\n        if(keccak256(bytes(customer_list[i].username)) == keccak256(bytes(_username)) && \r\n        keccak256(bytes(customer_list[i].password)) == keccak256(bytes(_password))\r\n        ){\r\n            customer_loggedin = true;\r\n        }\r\n    }\r\n    emit isLoggedin(customer_loggedin);\r\n    return customer_loggedin;\r\n}\r\n\r\nfunction create_manager(string memory _username, string memory _password) public {\r\n    manager_list.push(Manager(_username, _password, owner));\r\n}\r\n\r\n function create_customer(string memory _username, string memory _password) public{\r\n       customer_list.push(Customer(owner, _username, _password));\r\n    }\r\n\r\n\r\nfunction create_product(uint _deviceid, string memory _product, uint _quality, string memory _latitude, string memory _longitude) public {\r\n    product_list.push(Product(_deviceid, owner, _product, _quality, _latitude, _longitude));\r\n}\r\n\r\nfunction create_location(string memory _deviceid, string memory _latitude, string memory _longitude, string memory _date) public {\r\n    Geolocation memory g =  Geolocation(_deviceid, _latitude, _longitude, _date);\r\n    Geo_map[_deviceid].push(g);\r\n    geo_list.push(Geolocation(_deviceid, _latitude, _longitude, _date));\r\n}\r\n\r\nfunction get_index_manager(uint _id) public view returns(string memory){\r\n    return manager_list[_id].username;\r\n}\r\n\r\nfunction get_new_locationid(string memory _id) public view returns(Geolocation [] memory ){\r\n    return Geo_map[_id];\r\n}\r\n\r\nfunction get_product_list() public view returns(Product [] memory ){\r\n    return product_list;\r\n}\r\n\r\nfunction get_manager_list() public view returns(Manager [] memory ){\r\n    return manager_list;\r\n}\r\n\r\nfunction get_devid(uint _id) public view returns(uint ){\r\n    return product_list[_id].deviceid;\r\n}\r\n\r\nfunction get_geolocation() public view returns(Geolocation [] memory ){\r\n    return geo_list;\r\n}\r\n\r\nfunction get_index_product(uint _id) public view returns(uint, string memory, uint, string memory, string memory){\r\n    uint curr_deviceid;\r\n    string memory curr_product;\r\n    uint curr_quality;\r\n    string memory curr_latitude;\r\n    string memory curr_longitude;\r\n    \r\n    for(uint i = 0; i < product_list.length; i++){\r\n    if(product_list[i].deviceid == _id){\r\n        curr_deviceid = product_list[i].deviceid;\r\n        curr_product = product_list[i].product;\r\n        curr_quality = product_list[i].quality;\r\n        curr_latitude = product_list[i].latitude;\r\n        curr_longitude = product_list[i].longitude;\r\n    }\r\n    }\r\n    return (curr_deviceid, curr_product, curr_quality, curr_latitude, curr_longitude);\r\n}\r\n\r\nfunction get_index_location(string memory _id) public view returns(string memory, string memory, string memory, string memory){\r\n    \r\n    string memory curr_deviceid;\r\n    string memory curr_latitude;\r\n    string memory curr_longitude;\r\n    string memory curr_date;\r\n    for(uint i = 0; i < geo_list.length; i++){\r\n    if( keccak256(bytes(geo_list[i].deviceid)) == keccak256(bytes(_id)) ) {\r\n        curr_deviceid = geo_list[i].deviceid;\r\n        curr_latitude = geo_list[i].latitude;\r\n        curr_longitude = geo_list[i].longitude;\r\n        curr_date = geo_list[i].date;\r\n    }\r\n    }\r\n    return (curr_deviceid, curr_latitude, curr_longitude, curr_date);\r\n}\r\n\r\nfunction set_curr_location(string memory _id, string memory _latitude, string memory _longitude, string memory _date) public payable returns(\r\n    string memory, string memory, string memory, string memory){\r\n   \r\n    for(uint i = 0; i < geo_list.length; i++){\r\n    if(keccak256(bytes(geo_list[i].deviceid)) == keccak256(bytes(_id))){\r\n         geo_list[i].longitude = _longitude;\r\n         geo_list[i].latitude = _latitude;\r\n         geo_list[i].date = _date;\r\n        \r\n    }\r\n    }\r\n    return (_id, _latitude, _longitude, _date);\r\n}\r\n    \r\n}",
  "sourcePath": "C:/Users/robel/react-apps/eth_supply_chain/contracts/Supply.sol",
  "compiler": {
    "name": "solc",
    "version": "0.5.16+commit.9c3226ce.Emscripten.clang"
  },
  "schemaVersion": "3.3.4",
  "updatedAt": "2021-04-23T14:26:19.500Z",
  "networkType": "ethereum",
  "devdoc": {
    "methods": {}
  },
  "userdoc": {
    "methods": {}
  }
}