{
  "contractName": "Supply",
  "abi": [
    {
      "anonymous": false,
      "inputs": [
        {
          "indexed": false,
          "internalType": "bool",
          "name": "loggedin",
          "type": "bool"
        }
      ],
      "name": "Loggedin",
      "type": "event"
    },
    {
      "anonymous": false,
      "inputs": [
        {
          "indexed": false,
          "internalType": "bool",
          "name": "_isloggedin",
          "type": "bool"
        }
      ],
      "name": "isLoggedin",
      "type": "event"
    },
    {
      "constant": true,
      "inputs": [
        {
          "internalType": "uint256",
          "name": "",
          "type": "uint256"
        }
      ],
      "name": "customer_list",
      "outputs": [
        {
          "internalType": "uint256",
          "name": "id",
          "type": "uint256"
        },
        {
          "internalType": "address",
          "name": "customer_owner",
          "type": "address"
        },
        {
          "internalType": "uint256",
          "name": "deviceid",
          "type": "uint256"
        },
        {
          "internalType": "string",
          "name": "username",
          "type": "string"
        },
        {
          "internalType": "string",
          "name": "password",
          "type": "string"
        }
      ],
      "payable": false,
      "stateMutability": "view",
      "type": "function"
    },
    {
      "constant": true,
      "inputs": [
        {
          "internalType": "uint256",
          "name": "",
          "type": "uint256"
        }
      ],
      "name": "new_list",
      "outputs": [
        {
          "internalType": "string",
          "name": "username",
          "type": "string"
        },
        {
          "internalType": "string",
          "name": "password",
          "type": "string"
        },
        {
          "internalType": "address",
          "name": "owner",
          "type": "address"
        }
      ],
      "payable": false,
      "stateMutability": "view",
      "type": "function"
    },
    {
      "constant": true,
      "inputs": [
        {
          "internalType": "uint256",
          "name": "",
          "type": "uint256"
        }
      ],
      "name": "product_list",
      "outputs": [
        {
          "internalType": "uint256",
          "name": "deviceid",
          "type": "uint256"
        },
        {
          "internalType": "address",
          "name": "owner",
          "type": "address"
        },
        {
          "internalType": "string",
          "name": "product",
          "type": "string"
        },
        {
          "internalType": "uint256",
          "name": "quality",
          "type": "uint256"
        },
        {
          "internalType": "string",
          "name": "latitude",
          "type": "string"
        },
        {
          "internalType": "string",
          "name": "longitude",
          "type": "string"
        }
      ],
      "payable": false,
      "stateMutability": "view",
      "type": "function"
    },
    {
      "constant": false,
      "inputs": [
        {
          "internalType": "string",
          "name": "_username",
          "type": "string"
        },
        {
          "internalType": "string",
          "name": "_password",
          "type": "string"
        }
      ],
      "name": "log_in_manager",
      "outputs": [
        {
          "internalType": "bool",
          "name": "",
          "type": "bool"
        }
      ],
      "payable": true,
      "stateMutability": "payable",
      "type": "function"
    },
    {
      "constant": false,
      "inputs": [
        {
          "internalType": "string",
          "name": "_username",
          "type": "string"
        },
        {
          "internalType": "string",
          "name": "_password",
          "type": "string"
        }
      ],
      "name": "log_in_customer",
      "outputs": [
        {
          "internalType": "bool",
          "name": "",
          "type": "bool"
        }
      ],
      "payable": true,
      "stateMutability": "payable",
      "type": "function"
    },
    {
      "constant": false,
      "inputs": [
        {
          "internalType": "string",
          "name": "_username",
          "type": "string"
        },
        {
          "internalType": "string",
          "name": "_password",
          "type": "string"
        }
      ],
      "name": "create_manager",
      "outputs": [],
      "payable": false,
      "stateMutability": "nonpayable",
      "type": "function"
    },
    {
      "constant": false,
      "inputs": [
        {
          "internalType": "uint256",
          "name": "_deviceid",
          "type": "uint256"
        },
        {
          "internalType": "string",
          "name": "_product",
          "type": "string"
        },
        {
          "internalType": "uint256",
          "name": "_quality",
          "type": "uint256"
        },
        {
          "internalType": "string",
          "name": "_latitude",
          "type": "string"
        },
        {
          "internalType": "string",
          "name": "_longitude",
          "type": "string"
        }
      ],
      "name": "create_product",
      "outputs": [],
      "payable": false,
      "stateMutability": "nonpayable",
      "type": "function"
    },
    {
      "constant": true,
      "inputs": [
        {
          "internalType": "uint256",
          "name": "_id",
          "type": "uint256"
        }
      ],
      "name": "get_index_manager",
      "outputs": [
        {
          "components": [
            {
              "internalType": "string",
              "name": "username",
              "type": "string"
            },
            {
              "internalType": "string",
              "name": "password",
              "type": "string"
            },
            {
              "internalType": "address",
              "name": "owner",
              "type": "address"
            }
          ],
          "internalType": "struct Supply.Manager",
          "name": "",
          "type": "tuple"
        }
      ],
      "payable": false,
      "stateMutability": "view",
      "type": "function"
    },
    {
      "constant": true,
      "inputs": [
        {
          "internalType": "uint256",
          "name": "_id",
          "type": "uint256"
        }
      ],
      "name": "get_index_product",
      "outputs": [
        {
          "components": [
            {
              "internalType": "uint256",
              "name": "deviceid",
              "type": "uint256"
            },
            {
              "internalType": "address",
              "name": "owner",
              "type": "address"
            },
            {
              "internalType": "string",
              "name": "product",
              "type": "string"
            },
            {
              "internalType": "uint256",
              "name": "quality",
              "type": "uint256"
            },
            {
              "internalType": "string",
              "name": "latitude",
              "type": "string"
            },
            {
              "internalType": "string",
              "name": "longitude",
              "type": "string"
            }
          ],
          "internalType": "struct Supply.Product",
          "name": "",
          "type": "tuple"
        }
      ],
      "payable": false,
      "stateMutability": "view",
      "type": "function"
    },
    {
      "constant": false,
      "inputs": [
        {
          "internalType": "uint256",
          "name": "_id",
          "type": "uint256"
        },
        {
          "internalType": "uint256",
          "name": "_deviceid",
          "type": "uint256"
        },
        {
          "internalType": "string",
          "name": "_username",
          "type": "string"
        },
        {
          "internalType": "string",
          "name": "_password",
          "type": "string"
        }
      ],
      "name": "create_customer",
      "outputs": [],
      "payable": false,
      "stateMutability": "nonpayable",
      "type": "function"
    }
  ],
  "bytecode": "0x608060405233600260006101000a81548173ffffffffffffffffffffffffffffffffffffffff021916908373ffffffffffffffffffffffffffffffffffffffff16021790555033600360006101000a81548173ffffffffffffffffffffffffffffffffffffffff021916908373ffffffffffffffffffffffffffffffffffffffff16021790555034801561009257600080fd5b50611ec5806100a26000396000f3fe6080604052600436106100915760003560e01c806376fe70291161005957806376fe7029146101a357806378934035146101e2578063b5bdb09c14610212578063e249737614610242578063eb5ba90f1461026b57610091565b806302f6e1e11461009657806329733f46146100d75780632dfb90f5146101005780635074147c1461013d57806371c5707c1461017a575b600080fd5b3480156100a257600080fd5b506100bd60048036036100b8919081019061175e565b6102ad565b6040516100ce959493929190611cc9565b60405180910390f35b3480156100e357600080fd5b506100fe60048036036100f99190810190611787565b610440565b005b34801561010c57600080fd5b506101276004803603610122919081019061175e565b61069d565b6040516101349190611c31565b60405180910390f35b34801561014957600080fd5b50610164600480360361015f919081019061175e565b61092e565b6040516101719190611c0f565b60405180910390f35b34801561018657600080fd5b506101a1600480360361019c9190810190611846565b610b5f565b005b3480156101af57600080fd5b506101ca60048036036101c5919081019061175e565b610d24565b6040516101d993929190611baa565b60405180910390f35b6101fc60048036036101f791908101906116f2565b610eab565b6040516102099190611b8f565b60405180910390f35b61022c600480360361022791908101906116f2565b610fdd565b6040516102399190611b8f565b60405180910390f35b34801561024e57600080fd5b50610269600480360361026491908101906116f2565b61110d565b005b34801561027757600080fd5b50610292600480360361028d919081019061175e565b6112a9565b6040516102a496959493929190611c53565b60405180910390f35b600781815481106102ba57fe5b90600052602060002090600502016000915090508060000154908060010160009054906101000a900473ffffffffffffffffffffffffffffffffffffffff1690806002015490806003018054600181600116156101000203166002900480601f0160208091040260200160405190810160405280929190818152602001828054600181600116156101000203166002900480156103985780601f1061036d57610100808354040283529160200191610398565b820191906000526020600020905b81548152906001019060200180831161037b57829003601f168201915b505050505090806004018054600181600116156101000203166002900480601f0160208091040260200160405190810160405280929190818152602001828054600181600116156101000203166002900480156104365780601f1061040b57610100808354040283529160200191610436565b820191906000526020600020905b81548152906001019060200180831161041957829003601f168201915b5050505050905085565b60011515600560009054906101000a900460ff16151514610496576040517f08c379a000000000000000000000000000000000000000000000000000000000815260040161048d90611bef565b60405180910390fd5b60006001600060085481526020019081526020016000209050858160000181905550600260009054906101000a900473ffffffffffffffffffffffffffffffffffffffff168160010160006101000a81548173ffffffffffffffffffffffffffffffffffffffff021916908373ffffffffffffffffffffffffffffffffffffffff160217905550848160020190805190602001906105359291906114da565b50838160030181905550828160040190805190602001906105579291906114da565b50818160050190805190602001906105709291906114da565b5060098190806001815401808255809150509060018203906000526020600020906006020160009091929091909150600082015481600001556001820160009054906101000a900473ffffffffffffffffffffffffffffffffffffffff168160010160006101000a81548173ffffffffffffffffffffffffffffffffffffffff021916908373ffffffffffffffffffffffffffffffffffffffff1602179055506002820181600201908054600181600116156101000203166002900461063792919061155a565b50600382015481600301556004820181600401908054600181600116156101000203166002900461066992919061155a565b506005820181600501908054600181600116156101000203166002900461069192919061155a565b50505050505050505050565b6106a56115e1565b6106ad6115e1565b600983815481106106ba57fe5b90600052602060002090600602016040518060c0016040529081600082015481526020016001820160009054906101000a900473ffffffffffffffffffffffffffffffffffffffff1673ffffffffffffffffffffffffffffffffffffffff1673ffffffffffffffffffffffffffffffffffffffff168152602001600282018054600181600116156101000203166002900480601f0160208091040260200160405190810160405280929190818152602001828054600181600116156101000203166002900480156107cc5780601f106107a1576101008083540402835291602001916107cc565b820191906000526020600020905b8154815290600101906020018083116107af57829003601f168201915b5050505050815260200160038201548152602001600482018054600181600116156101000203166002900480601f0160208091040260200160405190810160405280929190818152602001828054600181600116156101000203166002900480156108785780601f1061084d57610100808354040283529160200191610878565b820191906000526020600020905b81548152906001019060200180831161085b57829003601f168201915b50505050508152602001600582018054600181600116156101000203166002900480601f01602080910402602001604051908101604052809291908181526020018280546001816001161561010002031660029004801561091a5780601f106108ef5761010080835404028352916020019161091a565b820191906000526020600020905b8154815290600101906020018083116108fd57829003601f168201915b505050505081525050905080915050919050565b61093661162d565b60011515600560009054906101000a900460ff1615151461098c576040517f08c379a000000000000000000000000000000000000000000000000000000000815260040161098390611bef565b60405180910390fd5b61099461162d565b600a83815481106109a157fe5b9060005260206000209060030201604051806060016040529081600082018054600181600116156101000203166002900480601f016020809104026020016040519081016040528092919081815260200182805460018160011615610100020316600290048015610a535780601f10610a2857610100808354040283529160200191610a53565b820191906000526020600020905b815481529060010190602001808311610a3657829003601f168201915b50505050508152602001600182018054600181600116156101000203166002900480601f016020809104026020016040519081016040528092919081815260200182805460018160011615610100020316600290048015610af55780601f10610aca57610100808354040283529160200191610af5565b820191906000526020600020905b815481529060010190602001808311610ad857829003601f168201915b505050505081526020016002820160009054906101000a900473ffffffffffffffffffffffffffffffffffffffff1673ffffffffffffffffffffffffffffffffffffffff1673ffffffffffffffffffffffffffffffffffffffff1681525050905080915050919050565b60006004600060065481526020019081526020016000209050848160000181905550600360009054906101000a900473ffffffffffffffffffffffffffffffffffffffff168160010160006101000a81548173ffffffffffffffffffffffffffffffffffffffff021916908373ffffffffffffffffffffffffffffffffffffffff16021790555083816002018190555082816003019080519060200190610c079291906114da565b5081816004019080519060200190610c209291906114da565b5060078190806001815401808255809150509060018203906000526020600020906005020160009091929091909150600082015481600001556001820160009054906101000a900473ffffffffffffffffffffffffffffffffffffffff168160010160006101000a81548173ffffffffffffffffffffffffffffffffffffffff021916908373ffffffffffffffffffffffffffffffffffffffff1602179055506002820154816002015560038201816003019080546001816001161561010002031660029004610cf192919061155a565b5060048201816004019080546001816001161561010002031660029004610d1992919061155a565b505050505050505050565b600a8181548110610d3157fe5b9060005260206000209060030201600091509050806000018054600181600116156101000203166002900480601f016020809104026020016040519081016040528092919081815260200182805460018160011615610100020316600290048015610ddd5780601f10610db257610100808354040283529160200191610ddd565b820191906000526020600020905b815481529060010190602001808311610dc057829003601f168201915b505050505090806001018054600181600116156101000203166002900480601f016020809104026020016040519081016040528092919081815260200182805460018160011615610100020316600290048015610e7b5780601f10610e5057610100808354040283529160200191610e7b565b820191906000526020600020905b815481529060010190602001808311610e5e57829003601f168201915b5050505050908060020160009054906101000a900473ffffffffffffffffffffffffffffffffffffffff16905083565b600080600090505b600780549050811015610f7e57838051906020012060046000838152602001908152602001600020600301604051610eeb9190611b78565b6040518091039020148015610f305750828051906020012060046000838152602001908152602001600020600401604051610f269190611b78565b6040518091039020145b15610f55576001600560016101000a81548160ff021916908315150217905550610f71565b6001600560016101000a81548160ff0219169083151502179055505b8080600101915050610eb3565b507f351e11033a2b1bbdbb4c3a8d026f1cac474ee0959f6802a8c9e8170bef7fce4a600560019054906101000a900460ff16604051610fbd9190611b8f565b60405180910390a1600560019054906101000a900460ff16905092915050565b600080600090505b600a805490508110156110f457838051906020012060008083815260200190815260200160002060000160405161101c9190611b78565b6040518091039020148015611060575082805190602001206000808381526020019081526020016000206001016040516110569190611b78565b6040518091039020145b156110cb576001600560006101000a81548160ff0219169083151502179055507fe5575030a45bf990234c8e9f8bd458c27fac9d93342917731b293a14e49a5121600560009054906101000a900460ff166040516110be9190611b8f565b60405180910390a16110e7565b6000600560006101000a81548160ff0219169083151502179055505b8080600101915050610fe5565b50600560009054906101000a900460ff16905092915050565b600080600060085481526020019081526020016000209050600260009054906101000a900473ffffffffffffffffffffffffffffffffffffffff168160020160006101000a81548173ffffffffffffffffffffffffffffffffffffffff021916908373ffffffffffffffffffffffffffffffffffffffff160217905550828160000190805190602001906111a29291906114da565b50818160010190805190602001906111bb9291906114da565b50600a81908060018154018082558091505090600182039060005260206000209060030201600090919290919091506000820181600001908054600181600116156101000203166002900461121192919061155a565b506001820181600101908054600181600116156101000203166002900461123992919061155a565b506002820160009054906101000a900473ffffffffffffffffffffffffffffffffffffffff168160020160006101000a81548173ffffffffffffffffffffffffffffffffffffffff021916908373ffffffffffffffffffffffffffffffffffffffff160217905550505050505050565b600981815481106112b657fe5b90600052602060002090600602016000915090508060000154908060010160009054906101000a900473ffffffffffffffffffffffffffffffffffffffff1690806002018054600181600116156101000203166002900480601f01602080910402602001604051908101604052809291908181526020018280546001816001161561010002031660029004801561138e5780601f106113635761010080835404028352916020019161138e565b820191906000526020600020905b81548152906001019060200180831161137157829003601f168201915b505050505090806003015490806004018054600181600116156101000203166002900480601f0160208091040260200160405190810160405280929190818152602001828054600181600116156101000203166002900480156114325780601f1061140757610100808354040283529160200191611432565b820191906000526020600020905b81548152906001019060200180831161141557829003601f168201915b505050505090806005018054600181600116156101000203166002900480601f0160208091040260200160405190810160405280929190818152602001828054600181600116156101000203166002900480156114d05780601f106114a5576101008083540402835291602001916114d0565b820191906000526020600020905b8154815290600101906020018083116114b357829003601f168201915b5050505050905086565b828054600181600116156101000203166002900490600052602060002090601f016020900481019282601f1061151b57805160ff1916838001178555611549565b82800160010185558215611549579182015b8281111561154857825182559160200191906001019061152d565b5b5090506115569190611664565b5090565b828054600181600116156101000203166002900490600052602060002090601f016020900481019282601f1061159357805485556115d0565b828001600101855582156115d057600052602060002091601f016020900482015b828111156115cf5782548255916001019190600101906115b4565b5b5090506115dd9190611664565b5090565b6040518060c0016040528060008152602001600073ffffffffffffffffffffffffffffffffffffffff168152602001606081526020016000815260200160608152602001606081525090565b60405180606001604052806060815260200160608152602001600073ffffffffffffffffffffffffffffffffffffffff1681525090565b61168691905b8082111561168257600081600090555060010161166a565b5090565b90565b600082601f83011261169a57600080fd5b81356116ad6116a882611d57565b611d2a565b915080825260208301602083018583830111156116c957600080fd5b6116d4838284611e18565b50505092915050565b6000813590506116ec81611e6b565b92915050565b6000806040838503121561170557600080fd5b600083013567ffffffffffffffff81111561171f57600080fd5b61172b85828601611689565b925050602083013567ffffffffffffffff81111561174857600080fd5b61175485828601611689565b9150509250929050565b60006020828403121561177057600080fd5b600061177e848285016116dd565b91505092915050565b600080600080600060a0868803121561179f57600080fd5b60006117ad888289016116dd565b955050602086013567ffffffffffffffff8111156117ca57600080fd5b6117d688828901611689565b94505060406117e7888289016116dd565b935050606086013567ffffffffffffffff81111561180457600080fd5b61181088828901611689565b925050608086013567ffffffffffffffff81111561182d57600080fd5b61183988828901611689565b9150509295509295909350565b6000806000806080858703121561185c57600080fd5b600061186a878288016116dd565b945050602061187b878288016116dd565b935050604085013567ffffffffffffffff81111561189857600080fd5b6118a487828801611689565b925050606085013567ffffffffffffffff8111156118c157600080fd5b6118cd87828801611689565b91505092959194509250565b6118e281611dd0565b82525050565b6118f181611dd0565b82525050565b61190081611de2565b82525050565b60008154600181166000811461192357600181146119485761198c565b607f60028304166119348187611da3565b955060ff198316865280860193505061198c565b600282046119568187611da3565b955061196185611d83565b60005b8281101561198357815481890152600182019150602081019050611964565b82880195505050505b505092915050565b600061199f82611d98565b6119a98185611dae565b93506119b9818560208601611e27565b6119c281611e5a565b840191505092915050565b60006119d882611d98565b6119e28185611dbf565b93506119f2818560208601611e27565b6119fb81611e5a565b840191505092915050565b6000611a13602c83611dbf565b91507f4d616e61676572202d2050617373776f726420616e6420757365726e616d652060008301527f697320636f72726563742e2e00000000000000000000000000000000000000006020830152604082019050919050565b60006060830160008301518482036000860152611a898282611994565b91505060208301518482036020860152611aa38282611994565b9150506040830151611ab860408601826118d9565b508091505092915050565b600060c083016000830151611adb6000860182611b5a565b506020830151611aee60208601826118d9565b5060408301518482036040860152611b068282611994565b9150506060830151611b1b6060860182611b5a565b5060808301518482036080860152611b338282611994565b91505060a083015184820360a0860152611b4d8282611994565b9150508091505092915050565b611b6381611e0e565b82525050565b611b7281611e0e565b82525050565b6000611b848284611906565b915081905092915050565b6000602082019050611ba460008301846118f7565b92915050565b60006060820190508181036000830152611bc481866119cd565b90508181036020830152611bd881856119cd565b9050611be760408301846118e8565b949350505050565b60006020820190508181036000830152611c0881611a06565b9050919050565b60006020820190508181036000830152611c298184611a6c565b905092915050565b60006020820190508181036000830152611c4b8184611ac3565b905092915050565b600060c082019050611c686000830189611b69565b611c7560208301886118e8565b8181036040830152611c8781876119cd565b9050611c966060830186611b69565b8181036080830152611ca881856119cd565b905081810360a0830152611cbc81846119cd565b9050979650505050505050565b600060a082019050611cde6000830188611b69565b611ceb60208301876118e8565b611cf86040830186611b69565b8181036060830152611d0a81856119cd565b90508181036080830152611d1e81846119cd565b90509695505050505050565b6000604051905081810181811067ffffffffffffffff82111715611d4d57600080fd5b8060405250919050565b600067ffffffffffffffff821115611d6e57600080fd5b601f19601f8301169050602081019050919050565b60008190508160005260206000209050919050565b600081519050919050565b600081905092915050565b600082825260208201905092915050565b600082825260208201905092915050565b6000611ddb82611dee565b9050919050565b60008115159050919050565b600073ffffffffffffffffffffffffffffffffffffffff82169050919050565b6000819050919050565b82818337600083830152505050565b60005b83811015611e45578082015181840152602081019050611e2a565b83811115611e54576000848401525b50505050565b6000601f19601f8301169050919050565b611e7481611e0e565b8114611e7f57600080fd5b5056fea365627a7a72315820d368464acd07ebe206ddc98c36c21df6b2dcd334746d6fbbdc8d55cd021590616c6578706572696d656e74616cf564736f6c63430005100040",
  "source": "pragma solidity >=0.4.22 <0.9.0;\r\npragma experimental ABIEncoderV2;\r\n\r\ncontract Supply{\r\nmapping(uint => Manager) Manager_map;\r\nmapping(uint => Product) Product_map;\r\naddress owner = msg.sender;\r\naddress customer = msg.sender;\r\nmapping(uint => customers) Customer_map;\r\n\r\nbool manager_loggedin;\r\nbool customer_loggedin;\r\n\r\nstruct Manager{\r\n    string username;\r\n    string password;\r\n    address owner;\r\n    \r\n}\r\nstruct Product{\r\n    uint deviceid;\r\n    address owner;\r\n    string product;\r\n    uint quality;\r\n    string latitude;\r\n    string longitude;\r\n}\r\n    \r\nstruct customers{\r\n        uint id;\r\n        address customer_owner;\r\n        uint deviceid;\r\n        string username;\r\n        string password;\r\n    }\r\n    \r\n    event isLoggedin(bool _isloggedin);\r\n    uint customerindex;\r\n    customers [] public customer_list;\r\n\r\nevent Loggedin(bool loggedin); \r\n\r\nuint mangerindex;\r\nProduct [] public product_list;\r\nManager [] public new_list;\r\n\r\nmodifier is_manager_loggedin{\r\n    require(manager_loggedin == true, \"Manager - Password and username is correct..\");\r\n    _;\r\n    }\r\n    \r\nmodifier is_customer_loggedin{\r\n    require(customer_loggedin == true, \"Customer - Password and username is correct..\");\r\n    _;\r\n    }\r\n\r\n\r\nfunction log_in_manager(string memory _username, string memory _password) public payable returns(bool){\r\n    for(uint i = 0; i < new_list.length; i++){\r\n        if(keccak256(bytes(Manager_map[i].username)) == keccak256(bytes(_username)) && \r\n        keccak256(bytes(Manager_map[i].password)) == keccak256(bytes(_password))\r\n        ){\r\n            manager_loggedin = true;\r\n            emit Loggedin(manager_loggedin);\r\n        }\r\n        else{\r\n            manager_loggedin = false;\r\n        }\r\n    }\r\n    \r\n    return manager_loggedin;\r\n}\r\n\r\nfunction log_in_customer(string memory _username, string memory _password) public payable returns(bool){\r\n    for(uint i = 0; i < customer_list.length; i++){\r\n        if(keccak256(bytes(Customer_map[i].username)) == keccak256(bytes(_username)) && \r\n        keccak256(bytes(Customer_map[i].password)) == keccak256(bytes(_password))\r\n        ){\r\n            customer_loggedin = true;\r\n        }\r\n        else{\r\n            customer_loggedin = true;\r\n        }\r\n    }\r\n    emit isLoggedin(customer_loggedin);\r\n    return customer_loggedin;\r\n}\r\n\r\nfunction create_manager(string memory _username, string memory _password) public {\r\n    Manager storage m = Manager_map[mangerindex];\r\n    m.owner = owner;\r\n    m.username = _username;\r\n    m.password = _password;\r\n    new_list.push(m);\r\n}\r\n\r\nfunction create_product(uint _deviceid, string memory _product, uint _quality, string memory _latitude, string memory _longitude) is_manager_loggedin public {\r\n    Product storage p = Product_map[mangerindex];\r\n    p.deviceid = _deviceid;\r\n    p.owner = owner;\r\n    p.product = _product;\r\n    p.quality = _quality;\r\n    p.latitude = _latitude;\r\n    p.longitude = _longitude;\r\n    product_list.push(p);\r\n}\r\n\r\nfunction get_index_manager(uint _id) is_manager_loggedin public view returns(Manager memory){\r\n    Manager memory m = new_list[_id];\r\n    return (m);\r\n}\r\n\r\nfunction get_index_product(uint _id) public view returns(Product memory){\r\n    Product memory p = product_list[_id];\r\n    return (p);\r\n}\r\n    \r\n    function create_customer(uint _id, uint _deviceid, string memory _username, string memory _password) public{\r\n        customers storage c = Customer_map[customerindex];\r\n        c.id = _id;\r\n        c.customer_owner = customer;\r\n        c.deviceid = _deviceid;\r\n        c.username = _username;\r\n        c.password = _password;\r\n        customer_list.push(c);\r\n    }\r\n\r\n}",
  "sourcePath": "C:/Users/robel/react-apps/eth_supply_chain/contracts/Supply.sol",
  "compiler": {
    "name": "solc",
    "version": "0.5.16+commit.9c3226ce.Emscripten.clang"
  },
  "schemaVersion": "3.3.4",
  "updatedAt": "2021-04-09T13:26:01.309Z",
  "networkType": "ethereum",
  "devdoc": {
    "methods": {}
  },
  "userdoc": {
    "methods": {}
  }
}